{
  "_format": "hh-sol-artifact-1",
  "contractName": "BitQualify",
  "sourceName": "contracts/BitQualify.sol",
  "abi": [
    {
      "inputs": [],
      "stateMutability": "nonpayable",
      "type": "constructor"
    },
    {
      "anonymous": false,
      "inputs": [
        {
          "indexed": true,
          "internalType": "address",
          "name": "studentAddress",
          "type": "address"
        }
      ],
      "name": "RegistrationCancelled",
      "type": "event"
    },
    {
      "anonymous": false,
      "inputs": [
        {
          "indexed": true,
          "internalType": "address",
          "name": "studentAddress",
          "type": "address"
        },
        {
          "indexed": false,
          "internalType": "string",
          "name": "name",
          "type": "string"
        },
        {
          "indexed": false,
          "internalType": "uint256",
          "name": "timestamp",
          "type": "uint256"
        }
      ],
      "name": "StudentRegistered",
      "type": "event"
    },
    {
      "inputs": [],
      "name": "admin",
      "outputs": [
        {
          "internalType": "address",
          "name": "",
          "type": "address"
        }
      ],
      "stateMutability": "view",
      "type": "function"
    },
    {
      "inputs": [],
      "name": "currentStudentCount",
      "outputs": [
        {
          "internalType": "uint256",
          "name": "",
          "type": "uint256"
        }
      ],
      "stateMutability": "view",
      "type": "function"
    },
    {
      "inputs": [],
      "name": "getRegisteredStudents",
      "outputs": [
        {
          "internalType": "address[]",
          "name": "",
          "type": "address[]"
        }
      ],
      "stateMutability": "view",
      "type": "function"
    },
    {
      "inputs": [
        {
          "internalType": "address",
          "name": "studentAddress",
          "type": "address"
        }
      ],
      "name": "getStudentDetails",
      "outputs": [
        {
          "internalType": "string",
          "name": "name",
          "type": "string"
        },
        {
          "internalType": "uint256",
          "name": "registrationTime",
          "type": "uint256"
        },
        {
          "internalType": "bool",
          "name": "isRegistered",
          "type": "bool"
        }
      ],
      "stateMutability": "view",
      "type": "function"
    },
    {
      "inputs": [
        {
          "internalType": "string",
          "name": "_name",
          "type": "string"
        }
      ],
      "name": "registerForExam",
      "outputs": [],
      "stateMutability": "nonpayable",
      "type": "function"
    },
    {
      "inputs": [
        {
          "internalType": "uint256",
          "name": "",
          "type": "uint256"
        }
      ],
      "name": "registeredStudents",
      "outputs": [
        {
          "internalType": "address",
          "name": "",
          "type": "address"
        }
      ],
      "stateMutability": "view",
      "type": "function"
    },
    {
      "inputs": [
        {
          "internalType": "address",
          "name": "",
          "type": "address"
        }
      ],
      "name": "students",
      "outputs": [
        {
          "internalType": "string",
          "name": "name",
          "type": "string"
        },
        {
          "internalType": "uint256",
          "name": "registrationTime",
          "type": "uint256"
        },
        {
          "internalType": "bool",
          "name": "isRegistered",
          "type": "bool"
        }
      ],
      "stateMutability": "view",
      "type": "function"
    }
  ],
  "bytecode": "0x608060405234801561001057600080fd5b50336000806101000a81548173ffffffffffffffffffffffffffffffffffffffff021916908373ffffffffffffffffffffffffffffffffffffffff160217905550610fcb806100606000396000f3fe608060405234801561001057600080fd5b506004361061007d5760003560e01c8063a6c807a91161005b578063a6c807a9146100ec578063b79c80901461011e578063d0b371bd1461013c578063f851a4401461016e5761007d565b80632dde7c67146100825780635a57a710146100a0578063721c522a146100bc575b600080fd5b61008a61018c565b6040516100979190610795565b60405180910390f35b6100ba60048036038101906100b59190610911565b6102a8565b005b6100d660048036038101906100d19190610990565b610456565b6040516100e391906109cc565b60405180910390f35b61010660048036038101906101019190610a13565b610495565b60405161011593929190610ae9565b60405180910390f35b610126610554565b6040516101339190610b27565b60405180910390f35b61015660048036038101906101519190610a13565b61055a565b60405161016593929190610ae9565b60405180910390f35b610176610681565b60405161018391906109cc565b60405180910390f35b606060008054906101000a900473ffffffffffffffffffffffffffffffffffffffff1673ffffffffffffffffffffffffffffffffffffffff163373ffffffffffffffffffffffffffffffffffffffff161461021c576040517f08c379a000000000000000000000000000000000000000000000000000000000815260040161021390610bb4565b60405180910390fd5b600380548060200260200160405190810160405280929190818152602001828054801561029e57602002820191906000526020600020905b8160009054906101000a900473ffffffffffffffffffffffffffffffffffffffff1673ffffffffffffffffffffffffffffffffffffffff1681526020019060010190808311610254575b5050505050905090565b600260003373ffffffffffffffffffffffffffffffffffffffff1673ffffffffffffffffffffffffffffffffffffffff16815260200190815260200160002060020160009054906101000a900460ff1615610338576040517f08c379a000000000000000000000000000000000000000000000000000000000815260040161032f90610c20565b60405180910390fd5b604051806060016040528082815260200142815260200160011515815250600260003373ffffffffffffffffffffffffffffffffffffffff1673ffffffffffffffffffffffffffffffffffffffff16815260200190815260200160002060008201518160000190816103aa9190610e4c565b506020820151816001015560408201518160020160006101000a81548160ff0219169083151502179055509050506003339080600181540180825580915050600190039060005260206000200160009091909190916101000a81548173ffffffffffffffffffffffffffffffffffffffff021916908373ffffffffffffffffffffffffffffffffffffffff1602179055506001600081548092919061044e90610f4d565b919050555050565b6003818154811061046657600080fd5b906000526020600020016000915054906101000a900473ffffffffffffffffffffffffffffffffffffffff1681565b60026020528060005260406000206000915090508060000180546104b890610c6f565b80601f01602080910402602001604051908101604052809291908181526020018280546104e490610c6f565b80156105315780601f1061050657610100808354040283529160200191610531565b820191906000526020600020905b81548152906001019060200180831161051457829003601f168201915b5050505050908060010154908060020160009054906101000a900460ff16905083565b60015481565b60606000806000600260008673ffffffffffffffffffffffffffffffffffffffff1673ffffffffffffffffffffffffffffffffffffffff1681526020019081526020016000206040518060600160405290816000820180546105bb90610c6f565b80601f01602080910402602001604051908101604052809291908181526020018280546105e790610c6f565b80156106345780601f1061060957610100808354040283529160200191610634565b820191906000526020600020905b81548152906001019060200180831161061757829003601f168201915b50505050508152602001600182015481526020016002820160009054906101000a900460ff1615151515815250509050806000015181602001518260400151935093509350509193909250565b60008054906101000a900473ffffffffffffffffffffffffffffffffffffffff1681565b600081519050919050565b600082825260208201905092915050565b6000819050602082019050919050565b600073ffffffffffffffffffffffffffffffffffffffff82169050919050565b60006106fc826106d1565b9050919050565b61070c816106f1565b82525050565b600061071e8383610703565b60208301905092915050565b6000602082019050919050565b6000610742826106a5565b61074c81856106b0565b9350610757836106c1565b8060005b8381101561078857815161076f8882610712565b975061077a8361072a565b92505060018101905061075b565b5085935050505092915050565b600060208201905081810360008301526107af8184610737565b905092915050565b6000604051905090565b600080fd5b600080fd5b600080fd5b600080fd5b6000601f19601f8301169050919050565b7f4e487b7100000000000000000000000000000000000000000000000000000000600052604160045260246000fd5b61081e826107d5565b810181811067ffffffffffffffff8211171561083d5761083c6107e6565b5b80604052505050565b60006108506107b7565b905061085c8282610815565b919050565b600067ffffffffffffffff82111561087c5761087b6107e6565b5b610885826107d5565b9050602081019050919050565b82818337600083830152505050565b60006108b46108af84610861565b610846565b9050828152602081018484840111156108d0576108cf6107d0565b5b6108db848285610892565b509392505050565b600082601f8301126108f8576108f76107cb565b5b81356109088482602086016108a1565b91505092915050565b600060208284031215610927576109266107c1565b5b600082013567ffffffffffffffff811115610945576109446107c6565b5b610951848285016108e3565b91505092915050565b6000819050919050565b61096d8161095a565b811461097857600080fd5b50565b60008135905061098a81610964565b92915050565b6000602082840312156109a6576109a56107c1565b5b60006109b48482850161097b565b91505092915050565b6109c6816106f1565b82525050565b60006020820190506109e160008301846109bd565b92915050565b6109f0816106f1565b81146109fb57600080fd5b50565b600081359050610a0d816109e7565b92915050565b600060208284031215610a2957610a286107c1565b5b6000610a37848285016109fe565b91505092915050565b600081519050919050565b600082825260208201905092915050565b60005b83811015610a7a578082015181840152602081019050610a5f565b60008484015250505050565b6000610a9182610a40565b610a9b8185610a4b565b9350610aab818560208601610a5c565b610ab4816107d5565b840191505092915050565b610ac88161095a565b82525050565b60008115159050919050565b610ae381610ace565b82525050565b60006060820190508181036000830152610b038186610a86565b9050610b126020830185610abf565b610b1f6040830184610ada565b949350505050565b6000602082019050610b3c6000830184610abf565b92915050565b7f4f6e6c792061646d696e2063616e2063616c6c20746869732066756e6374696f60008201527f6e00000000000000000000000000000000000000000000000000000000000000602082015250565b6000610b9e602183610a4b565b9150610ba982610b42565b604082019050919050565b60006020820190508181036000830152610bcd81610b91565b9050919050565b7f416c726561647920726567697374657265640000000000000000000000000000600082015250565b6000610c0a601283610a4b565b9150610c1582610bd4565b602082019050919050565b60006020820190508181036000830152610c3981610bfd565b9050919050565b7f4e487b7100000000000000000000000000000000000000000000000000000000600052602260045260246000fd5b60006002820490506001821680610c8757607f821691505b602082108103610c9a57610c99610c40565b5b50919050565b60008190508160005260206000209050919050565b60006020601f8301049050919050565b600082821b905092915050565b600060088302610d027fffffffffffffffffffffffffffffffffffffffffffffffffffffffffffffffff82610cc5565b610d0c8683610cc5565b95508019841693508086168417925050509392505050565b6000819050919050565b6000610d49610d44610d3f8461095a565b610d24565b61095a565b9050919050565b6000819050919050565b610d6383610d2e565b610d77610d6f82610d50565b848454610cd2565b825550505050565b600090565b610d8c610d7f565b610d97818484610d5a565b505050565b5b81811015610dbb57610db0600082610d84565b600181019050610d9d565b5050565b601f821115610e0057610dd181610ca0565b610dda84610cb5565b81016020851015610de9578190505b610dfd610df585610cb5565b830182610d9c565b50505b505050565b600082821c905092915050565b6000610e2360001984600802610e05565b1980831691505092915050565b6000610e3c8383610e12565b9150826002028217905092915050565b610e5582610a40565b67ffffffffffffffff811115610e6e57610e6d6107e6565b5b610e788254610c6f565b610e83828285610dbf565b600060209050601f831160018114610eb65760008415610ea4578287015190505b610eae8582610e30565b865550610f16565b601f198416610ec486610ca0565b60005b82811015610eec57848901518255600182019150602085019450602081019050610ec7565b86831015610f095784890151610f05601f891682610e12565b8355505b6001600288020188555050505b505050505050565b7f4e487b7100000000000000000000000000000000000000000000000000000000600052601160045260246000fd5b6000610f588261095a565b91507fffffffffffffffffffffffffffffffffffffffffffffffffffffffffffffffff8203610f8a57610f89610f1e565b5b60018201905091905056fea2646970667358221220b08919c047447488955fa6d69f8da7575b15491510d1ae4c9d7aaa74e70330e264736f6c63430008140033",
  "linkReferences": {},
  "deployedLinkReferences": {}
}